:020000040800F2
:1000000000000220B9020008BF020008C302000875
:1000100035030008390300088103000800000000D0
:10002000000000000000000000000000C9030008FC
:10003000CD03000800000000D10300088914000867
:10004000E5030008E5030008E5030008E5030008F0
:10005000E5030008E5030008E5030008E5030008E0
:10006000E5030008E5030008E5030008E5030008D0
:10007000E5030008E5030008E5030008E5030008C0
:10008000E5030008E5030008E5030008E5030008B0
:10009000E5030008E5030008E5030008E5030008A0
:1000A000E5030008E5030008E5030008E503000890
:1000B000E5030008E5030008E5030008E503000880
:1000C000E5030008E5030008E5030008E503000870
:1000D000E5030008E5030008E5030008E503000860
:1000E000E5030008E5030008E5030008E503000850
:1000F000E5030008E5030008E5030008E503000840
:10010000E5030008E5030008E5030008E50300082F
:10011000E5030008E5030008E5030008E50300081F
:10012000E5030008E5030008E5030008E50300080F
:10013000E5030008E5030008E5030008E5030008FF
:10014000E5030008E5030008E5030008E5030008EF
:10015000E5030008E5030008E5030008E5030008DF
:10016000E5030008E5030008E5030008E5030008CF
:10017000E5030008E5030008E503000800000000AF
:10018000E5030008E503000800B583B000F000FFB8
:10019000384B394A1360394A1360394900E0214627
:1001A000384B99420BD20A684B6801F10C048868FD
:1001B0009842F4D952F8041B43F8041BF8E72E4B7D
:1001C0001A68314B9A4200D0FEE72C4B1A682F4B2D
:1001D0009A42F9D1274B2E4A13602E4A13602E4AB9
:1001E00005E0002043F8040B9A42FAD80A462B4B4C
:1001F0009A4204D2114651F8083B5268F4E7244B66
:100200001B6813B9234B1B6803B1FEE701F084F8A8
:10021000694601A800F0F4FD214C224BE41AA41019
:10022000002504E01F4B53F8253098470135AC42B8
:10023000F8DC1D4C1D4BE41AA410002504E01B4BF8
:1002400053F8253098470135AC42F8DC0099019805
:1002500001F082F80546164C164BE41AA41004E08F
:10026000013C144B53F824309847002CF8DC284606
:1002700000F062FDBABADECA00000020780000205B
:10028000E8030008000400087856341232547698C7
:100290007C00002020070020000400081004000853
:1002A00010040008100400081004000810040008DE
:1002B000100400081004000808B5FFF765FF00BE31
:1002C000FEE71EF0040F0CBFEFF30880EFF3098088
:1002D0007146414A10472DE9F04182B004460D466F
:1002E000124B5F6BD3F838809E6A1B6B13F0020FC2
:1002F00003D00E4BDB6A002B0BDB0D4800F0EAFD50
:10030000009543463A463146204600F04DFE00BE79
:10031000FEE74BF6AB6100F0C1FE0028EDD0034BC9
:100320004FF00042DA6202B0BDE8F08100ED00E07B
:10033000F01F000800BEFEE71EF0040F0CBFEFF335
:100340000880EFF309807146244A10472DE9F041F7
:1003500082B004460D46084B5F6BD3F838809E6A26
:10036000064800F0B7FD009543463A463146204620
:1003700000F01AFE00BEFEE700ED00E000200008DD
:100380001EF0040F0CBFEFF30880EFF309807146F5
:10039000134A10472DE9F04182B004460D46084B40
:1003A0005F6BD3F838809E6A064800F093FD009595
:1003B00043463A463146204600F0F6FD00BEFEE7D1
:1003C00000ED00E00C20000800BEFEE700BEFEE7E6
:1003D00000BEFEE770470000D70200084D0300088A
:0803E0009503000800BEFEE7D2
:1003E800C4210008000000207C000020C42100086F
:1003F80000000010000000107C00002024070020EE
:080408000000001000000010CC
:1004100010B50446074B1868074BA3FB0030800952
:1004200000F090F8002221464FF0FF3000F044F831
:10043000002010BD04000020D34D621008B50B4B06
:100440001A6842F400721A601A6842F480621A60F4
:100450001A6842F480721A60032000F00FF80F202F
:10046000FFF7D6FF01F024F8002008BD003C024051
:10047000014B1868704700BF3C02002010B50446CD
:10048000C31E042B0FD80A4AD36823F4E0631B046D
:100490001B0C240204F4E064234343F0BF6343F4E1
:1004A0000033D36010BDA421024800F009FDEAE743
:1004B00000ED00E01C1E000870B505460C4616460F
:1004C0000F2A25D80F2C28D81B4BDB68C3F3022337
:1004D000C3F10701042928BF04211A1D062A21D9C6
:1004E000033B4FF0FF3202FA01F124EA01049C4081
:1004F00002FA03F326EA03063443002D14DB240139
:10050000E4B205F1604505F5614585F8004370BD2D
:10051000BC210A4800F0D4FCD4E7BD21074800F014
:10052000CFFCD1E70023DCE705F00F052401E4B29E
:10053000034B5C55EBE700BF00ED00E01C1E00081C
:1005400014ED00E00138B0F1807F0AD2064B58600C
:10055000064AF02182F823100020986007221A60D2
:1005600070470120704700BF10E000E000ED00E0A0
:1005700010B50446042800D038B9042C0BD0094A21
:10058000136823F00403136010BD40F2B311064852
:1005900000F096FCF1E7034A136843F0040313608C
:1005A000F2E700BF10E000E01C1E000830B583B089
:1005B000044603680F2B29D8236813F0010F3DD0A0
:1005C0006368012B01D9052B25D1A24B9B6803F051
:1005D0000C03042B29D09F4B9B6803F00C03082BC2
:1005E0001ED022799C4B1A706368002B50D0FFF705
:1005F0003FFF0546974B1B6813F4003F1ED1FFF7E2
:1006000037FF401B6428F5D90320E3E1F521934827
:1006100000F056FCD0E7FA21904800F051FCD4E7F6
:100620008C4B5B6813F4800FDBD08A4B1B6813F490
:10063000003F03D06368002B00F0C781236813F0EC
:10064000020F5CD0E368012B31D823691F2B34D80B
:10065000804B9B6813F00C0F3AD07E4B9B6803F0E5
:100660000C03082B2FD0E368002B73D07C4B0122A6
:100670001A60FFF7FDFE0546764B1B6813F0020F6C
:1006800059D1FFF7F5FE401B0228F5D90320A1E15F
:10069000FFF7EEFE05466F4B1B6813F4003FCDD00D
:1006A000FFF7E6FE401B6428F5D9032092E14FF4E2
:1006B00096716A4800F004FCC7E740F22D116748C4
:1006C00000F0FEFBC4E7634B5B6813F4800FCAD1F4
:1006D000604B1B6813F0020F03D0E368012B40F05E
:1006E00076815C48036823F0F8032169F82292FAC6
:1006F000A2F2B2FA82F201FA02F213430360236813
:1007000013F0080F50D06369012B35D86369002BB3
:1007100038D0544B01221A60FFF7AAFE05464D4B14
:100720005B6F13F0020F3FD1FFF7A2FE401B0228C0
:10073000F5D903204EE14748036823F0F803216907
:10074000F82292FAA2F2B2FA82F201FA02F213430A
:100750000360D4E7424B00221A60FFF789FE05468A
:100760003C4B1B6813F0020FC9D0FFF781FE401B02
:100770000228F5D903202DE140F26D11374800F031
:100780009FFBC3E7374B00221A60FFF771FE054657
:10079000304B5B6F13F0020F06D0FFF769FE401B72
:1007A0000228F5D9032015E1236813F0040F5FD068
:1007B000A368012B01D9052B1FD100230193254BE1
:1007C0001A6C42F080521A641B6C03F08053019340
:1007D000019B254A136843F480731360FFF748FEBA
:1007E0000546214B1B6813F4807F0CD1FFF740FEB8
:1007F000401B0228F5D90320ECE040F2971117487E
:1008000000F05EFBD9E7227A184B1A70A36883B117
:10081000FFF72EFE05460F4B1B6F13F0020F27D17B
:10082000FFF726FE401B41F288339842F3D903209C
:10083000D0E0FFF71DFE0546064B1B6F13F0020FBD
:1008400016D0FFF715FE401B41F288339842F3D9CA
:100850000320BFE00038024002380240501E00086A
:1008600000004742800E474200700040703802404E
:10087000A369022B39D8A369002B00F0AA80574A3C
:10088000926802F00C02082A00F0A680022B40F0C9
:100890008880E36913B1B3F5800F2CD1236A3F2B15
:1008A0002FD8636A323BB3F5BF7F30D8A36A022BDF
:1008B00005D0042B03D0062B01D0082B2DD1E36AE1
:1008C000043B0B2B2FD8464B00221A60FFF7D0FDBC
:1008D0000546424B1B6813F0007F2AD0FFF7C8FD86
:1008E000401B0228F5D9032074E04FF4E6713D481F
:1008F00000F0E6FABFE740F2D5113A4800F0E0FA1E
:10090000CCE74FF4EB71374800F0DAFAC9E740F270
:10091000D711344800F0D4FAC8E74FF4EC713148ED
:1009200000F0CEFACBE740F2D9112E4800F0C8FA19
:10093000C9E7E369226A1343616A47F6C07292FA13
:10094000A2F2B2FA82F201FA02F21343A26A520848
:10095000013A4FF4403191FAA1F1B1FA81F18A40A4
:100960001343E16A4FF0706292FAA2F2B2FA82F295
:1009700001FA02F21343194A5360194B01221A601B
:10098000FFF776FD0446154B1B6813F0007F06D178
:10099000FFF76EFD001B0228F5D903201AE00020A6
:1009A00018E00F4B00221A60FFF762FD04460B4B64
:1009B0001B6813F0007F06D0FFF75AFD001B0228CA
:1009C000F5D9032006E0002004E0012002E0012028
:1009D00000E0002003B030BD0120FBE700380240FA
:1009E00060004742501E0008214B9B6803F00C0337
:1009F000042B38D0082B38D11D4B586800F03F002D
:100A00005B6813F4800F1ED01A4AB2FBF0F2184B49
:100A1000586847F6C073184093FAA3F3B3FA83F308
:100A2000D84000FB02F0124B5B6803F440334FF4F4
:100A3000403292FAA2F2B2FA82F2D34001335B0062
:100A4000B0FBF3F070470C4AB2FBF0F2084B586869
:100A500047F6C073184093FAA3F3B3FA83F3D84070
:100A600000FB02F0DFE7034870470348704700BF10
:100A70000038024000127A000024F40070B50446E9
:100A80000D460368013B0E2B5ED8072D62D88C4BB8
:100A90001B6803F00F03AB4208D2EBB2884A137015
:100AA000136803F00F03AB4240F00481236813F096
:100AB000020F18D0A3687BB1802B0DD0902B0BD0E8
:100AC000A02B09D0B02B07D0C02B05D0D02B03D042
:100AD000E02B01D0F02B43D17A4A936823F0F00346
:100AE000A1680B439360236813F0010F7FD0636804
:100AF000032B3BD86368012B3ED09A1E012A42D9B2
:100B0000704A126812F0020F00F0D6806D498A68B0
:100B100022F0030213438B60FFF7AAFC06466368CA
:100B2000012B37D0022B44D0032B51D0654B9B684F
:100B300013F00C0F5BD0FFF79BFC801B41F2883356
:100B40009842F3D90320A8E040F237215E4800F034
:100B5000B7F99AE74FF40E715B4800F0B1F996E7E8
:100B600040F24F21584800F0ABF9B5E740F256216A
:100B7000554800F0A5F9BDE7524A126812F4003F4B
:100B8000C4D1012089E04F4A126812F0007FBDD124
:100B9000012082E04B4B9B6803F00C03042B26D012
:100BA000FFF766FC831B41F288329342F2D903209F
:100BB00073E0444B9B6803F00C03082B17D0FFF73E
:100BC00057FC801B41F288339842F2D9032064E03D
:100BD0003C4B9B6803F00C030C2B08D0FFF748FC40
:100BE000801B41F288339842F2D9032055E0344B00
:100BF0001B6803F00F03AB4207D9EAB2304B1A70FF
:100C00001B6803F00F03AB4258D1236813F0040FA5
:100C100014D0E3685BB1B3F5805F08D0B3F5A05F93
:100C200005D0B3F5C05F02D0B3F5E05F36D1254AF9
:100C3000936823F4E053E1680B439360236813F057
:100C4000080F15D023695BB1B3F5805F08D0B3F509
:100C5000A05F05D0B3F5C05F02D0B3F5E05F23D14C
:100C6000184A936823F46043216943EAC1039360FF
:100C7000FFF7BAFE134B9B6803F0F003F02292FAE1
:100C8000A2F2B2FA82F2D340104AD35CD840104BA1
:100C900018600F20FFF7BCFB002070BD4FF42D71D2
:100CA000094800F00DF9C2E740F2BB21064800F008
:100CB00007F9D5E70120F0E70120EEE70120ECE796
:100CC000003C024000380240501E0008801E000810
:100CD00004000020014B1868704700BF040000208A
:100CE00008B5034800F010F9012000F025F800BF16
:100CF000901E000808B503460C4A12685AB10B4A08
:100D00001068033323F003030344094A934206D8CF
:100D1000064A136008BD054A06491160EFE700F076
:100D2000C9FB0C2303604FF0FF30F3E78000002085
:100D300000FC01202407002000B530B9044D182420
:100D400020462946ABBE0446FEE7024DF7E700BF4A
:100D500026000200230002002DE9F04184B0234F59
:100D600001970326039600230293012401AD204638
:100D70002946ABBE80461E4BC3F800800197039600
:100D80000423029320462946ABBE8046194BC3F884
:100D90000080019703960823029320462946ABBEA4
:100DA0000446154B1C60B4F1FF3F01D000230AE05C
:100DB000104B1A68104B1A60F8E7104A4FF0FF31D9
:100DC00042F833100133132BF7DD0C4B084A12683D
:100DD0001A6000225A60074909689960DA6006497A
:100DE000096819615A6104B0BDE8F081A41E0008C9
:100DF0000001002004010020FC0000200801002068
:100E00002DE9F04383B0814688462A4B00934F2357
:100E1000019315246D4620462946ABBE0446ACBB63
:100E20002046244B002283F84F20009A2646254670
:100E300007E001321E46204B43F8242001340125EF
:100E4000013292F90030FBB165B91C495F56002FA1
:100E5000F6DB092BF4D0082C16DC222BE9D0272B4B
:100E6000E9D1E6E736B19E42EAD100231370064687
:100E70000546E5E711495956002901DB092BDFD169
:100E8000002313703546DBE73CB900E00024094B32
:100E900000221A70084A13600134074B002243F8FD
:100EA0002420C9F80040C8F80030FFF755FF03B010
:100EB000BDE8F08384000020D40000202D2000082D
:100EC00008B50A460146024800F004F8FFF708FF9B
:100ED000A81E00080FB400B583B004AB53F8042B70
:100EE00001938021074800F095FB002804DC03B043
:100EF0005DF804EB04B070470146024800F044F886
:100F0000F5E700BFA801002010B5044600F04EFB35
:100F10000146204600F038F80121024800F034F87C
:100F200010BD00BF6C1F00082DE9F04385B00446DA
:100F30000F46435633BB042528462146ABBE044624
:100F4000384605B0BDE8F08314F9010B04AA1A4431
:100F500002F8100C0133AB42F6D304AA134400226A
:100F600003F8102C4FF00408E94640464946ABBE52
:100F70008046761B002EE3D03546102E28BF102564
:100F80000023E8E70E46F5E708B5FFF7CDFF08BDFB
:100F900008B500F003F9024A024B9A6008BD00BF91
:100FA0000000000800ED00E0F8B504460D461746C5
:100FB0001E462748FFF78EFF21682648FFF78AFF65
:100FC00061682548FFF786FFA1682448FFF782FF84
:100FD000E1682348FFF77EFF21692248FFF77AFF87
:100FE00061692148FFF776FFA1692048FFF772FF8A
:100FF000E1691F48FFF76EFF1E48FFF76BFF2946A8
:101000001D48FFF767FF1D4CE16A1D48FFF762FFAF
:10101000216B1C48FFF75EFFE16B1B48FFF75AFF8F
:1010200015F0800F0AD115F4004F0CD11748FFF7C7
:1010300051FF06991648FFF74DFFF8BD3946154890
:10104000FFF748FFEFE731461348FFF743FFEDE7AF
:10105000D41E0008E41E0008F41E0008041F000847
:10106000141F0008241F0008341F0008441F000834
:10107000541F0008641F0008701F000800ED00E006
:10108000801F0008901F0008A01F0008D01F000844
:10109000D81F0008B01F0008C01F000838B58369BA
:1010A0001B888B4201D0002038BD04460368456888
:1010B000013B302B69D8DFE803F046211C1C5E3071
:1010C000332D19196819191919193619246819278E
:1010D00068396868686868686868686868686868BF
:1010E0006868686868686868681919004FF0FF33B5
:1010F0000360A3690233A3610120D5E700230360E5
:10110000F7E700230360F4E700232B606B60AB601C
:10111000EB60EEE700230360EBE7AB680360E8E712
:1011200000230360E5E700230360E2E7BFF34F8F8E
:101130001749CA6802F4E062164B1343CB60BFF351
:101140004F8F00BFFDE71449286800F025FA40B929
:101150006B6813B901232360CBE7042B05D0082B60
:1011600006D04FF0FF332360C3E702232360C0E7BC
:1011700003232360BDE72B68023B012B02D9AB6838
:101180000360B6E700230360B3E700208CE700BFED
:1011900000ED00E00400FA05A41E00080C4B1A68DC
:1011A00042F001021A60002199601A6822F08472EC
:1011B00022F480321A60074A5A601A6822F48022A8
:1011C0001A60D960044B4FF000629A60704700BF0C
:1011D000003802401030002400ED00E0224B9B68F4
:1011E00003F00C03042B14D0082B16D01BB11F4B9B
:1011F0001F4A1A6002E01D4B1D4A1A601A4B9B6879
:10120000C3F303131B4AD15C184A1368CB40136025
:101210007047164B184A1A60F0E7134B5A685B6820
:1012200003F03F0312F4800F13D0134AB2FBF3F222
:101230000D4B5B68C3F3881303FB02F30A4A526841
:10124000C2F3014201325200B3FBF2F3074A1360CA
:10125000D4E7074AB2FBF3F2034B5B68C3F388138E
:1012600003FB02F3EAE700BF00380240040000205D
:101270000024F4001C20000800127A0030B595B05C
:1012800000240194214B1A6C42F080521A641B6CAA
:1012900003F080530193019B02941D4B1A6842F4A2
:1012A00080421A601B6803F480430293029B01236F
:1012B000089309934FF480030F93082310934FF47E
:1012C000A873119302251295072313930E9508A86E
:1012D000FFF76CF90F230393049505944FF4A05383
:1012E00006934FF480530793052103A8FFF7C6FB2D
:1012F000FFF7F0FC074BA3FB00308009FFF722F952
:101300000420FFF735F915B030BD00BF00380240AA
:1013100000700040D34D621008B5FFF78FF8FFF75B
:10132000ADFFFFF75BFF08BD024A1368013313608E
:10133000FAE700BF28020020024A13680233136054
:10134000FAE700BF2C020020024A1368033313603F
:10135000FAE700BF3002002008B572B600F012F8BC
:10136000054B1A68054B1968054B186800F032F8F0
:101370000A2000F06FF8FEE7100000200C000020AB
:101380000800002072B6044B1B68044AA2FB03232A
:101390009B09034A1360704704000020D34D62107C
:1013A0006002002010B4094A4FF4C87303FB00F335
:1013B000D1184FF08074C1F88C4103F5A873134421
:1013C000034A42F8303010BC704700BF640200206E
:1013D000480200202DE9F04180460F4616460024C1
:1013E00008E0104B03EBC402103353602046FFF7B4
:1013F000D9FF0134022C09DC002CF2D0631E094D08
:1014000005EBC30305EBC4056B60EFE7064BC3F8C0
:101410008881C3F81873C3F8A864044B014A1A60A2
:10142000BDE8F08148020020640200204402002050
:1014300007480268D2F800D0BDE8F00F0FBC5DF895
:1014400004CB01B05DF804EB01B062B67047000058
:101450004402002008B5094A002111609160084B40
:10146000F02183F82310074B1B6803FB00F3013BBB
:10147000536007231360FFF7DBFF08BD10E000E0B7
:1014800000ED00E06002002072B62DE9F00F074881
:101490000168C1F800D001F1040109680160D1F8C8
:1014A00000D0BDE8F00F62B6704700004402002093
:1014B00070470000014B1868704700BF14000020FF
:1014C00070477047F8B5CD1C25F0030508350C2D85
:1014D00038BF0C25002D064601DBA94203D90C2399
:1014E00033600020F8BD00F0A3F821490A681446D3
:1014F0009CB9204F3B6823B92146304600F03CF8A8
:1015000038602946304600F037F8431C23D10C23BD
:101510003360304600F092F8E3E723685B1B17D492
:101520000B2B03D923601C44256004E06368A242AE
:101530000CBF0B605360304600F080F804F10B00E4
:10154000231D20F00700C21ACCD01B1AA350C9E7F4
:1015500022466468CCE7C41C24F00304A042E3D014
:10156000211A304600F008F80130DDD1CFE700BF86
:10157000340200203802002038B5064D002304460E
:1015800008462B60FFF7B6FB431C02D12B6803B162
:10159000236038BD4002002010F8012B11F8013BF8
:1015A000012A28BF9A42F7D0D01A7047034613F891
:1015B000012B002AFBD1181A0138704730B5141ED0
:1015C00005469BB0184605DA8B232B604FF0FF30A1
:1015D0001BB030BD4FF40273ADF80C3014BF04F1F2
:1015E000FF332346029305934FF6FF730091049156
:1015F000ADF80E3002461E9B6946284600F0CEF834
:10160000431CBCBF8B232B60002CE1D0009B00222D
:101610001A70DDE707B5009313460A4601460348F2
:101620000068FFF7CBFF03B05DF804FB1400002057
:101630000148FFF745BF00BF180700200148FFF72A
:1016400040BF00BF1807002038B50546002945D027
:1016500051F8043C0C1F002BB8BFE418FFF7E8FF5B
:101660001F4A1368104633B9636014602846BDE80A
:101670003840FFF7E3BFA3420BD9216862189342B9
:1016800004BF1A685B68636004BF5218226004607C
:10169000ECE71A465B680BB1A342FAD911685018FF
:1016A000A0420BD120680144501883421160DDD163
:1016B00018685B68536001441160D7E702D90C23B6
:1016C0002B60D3E7206821188B4204BF19685B6840
:1016D000636004BF091821605460C7E738BD00BFCC
:1016E000340200202DE9F0478E689E4282460C4667
:1016F00090461F4638D88A8912F4906F32D02568F8
:101700000969A5EB0109656905EB450505EBD5758B
:1017100001334B446D109D4238BF1D46530531D5F2
:101720002946FFF7CFFE064650B90C23CAF8003011
:10173000A38943F04003A3814FF0FF30BDE8F08759
:1017400021694A4600F014FBA38923F4906343F017
:101750008003A381266165614E44A5EB09052660DF
:10176000A5603E46BE4200D93E463246206841460C
:1017700000F00CFBA36822689B1B3244A36022602C
:101780000020DBE72A4600F01BFB06460028E1D1DB
:1017900021695046FFF758FFC7E700002DE9F04FD9
:1017A00098468B891B069DB007460D4614460ED5FC
:1017B0000B6963B94021FFF785FE2860286120B9D5
:1017C0000C233B604FF0FF30D1E040236B610023DE
:1017D000099320238DF82930CDF80C803023DFF8D1
:1017E000A8818DF82A304FF0010923469A4613F854
:1017F000012B0AB1252AF9D1BAEB040B0BD05B46B9
:10180000224629463846FFF76DFF013000F0AA80D6
:10181000099A5A4409929AF80030002B00F0A280ED
:1018200000234FF0FF32CDE905230AF1010A0493AA
:1018300007938DF853301A935446052214F8011B70
:10184000514800F045FA049AD8B9D00644BF202385
:101850008DF85330110744BF2B238DF853309AF87D
:1018600000302A2B15D0079A544600204FF00A0C5E
:10187000214611F8013B303B092B4ED9B0B10792FC
:1018800014E0A0EB080309FA03F313430493A24600
:10189000D2E7039B191D1B680391002BBBBF5B4262
:1018A00042F0020207930793B8BF049223782E2BCD
:1018B0000CD163782A2B35D1039B1A1D1B68039228
:1018C000002BB8BF4FF0FF3302340593DFF8C8A0F8
:1018D00021780322504600F0FBF940B14023A0EBF1
:1018E0000A0003FA00F0049B03430134049314F844
:1018F000011B26488DF82810062200F0E9F900287F
:1019000038D0234B1BBB039B073323F0070308335B
:101910000393099B3344099367E70CFB02320C469F
:101920000120A5E700230134059319464FF00A0C66
:10193000204610F8012B303A092A03D9002BC5D0D4
:101940000591C3E70CFB012104460123F0E703AB3B
:1019500000932A460F4B04A93846AFF30080421C7F
:101960000646D6D1AB895B063FF52CAF09981DB072
:10197000BDE8F08F03AB00932A46064B04A9384616
:1019800000F07AF8EBE700BF902100089A210008E8
:1019900000000000E5160008962100082DE9F04738
:1019A000164699468A680B69DDF820809342B8BFD5
:1019B0001346336091F8432007460C460AB10133C1
:1019C00033602368990642BF336802333360256869
:1019D00015F0060506D104F1190AE36832689B1A6E
:1019E000AB4226DC94F84320131E226818BF012363
:1019F00092062BD404F1430249463846C0470130D1
:101A00001ED02368E568326803F00603042B08BF84
:101A1000AD1AA36822690CBF25EAE575002593423B
:101A2000C4BF9B1AED1800261A34B5421AD1002003
:101A300008E00123524649463846C047013003D1E9
:101A40004FF0FF30BDE8F0870135C6E7E1185A1CBA
:101A5000302081F84300224494F8451082F8431066
:101A60000233C7E70123224649463846C0470130C2
:101A7000E6D00136D9E700002DE9FF470C46914634
:101A8000277E0C99782F80469A4604F1430207D8A6
:101A9000622F0AD8002F00F0D880582F00F0A380C2
:101AA00004F1420684F842703AE0A7F16303152B73
:101AB000F6D801A050F823F0111B0008251B0008E0
:101AC000A11A0008A11A0008A11A0008A11A00080A
:101AD000251B0008A11A0008A11A0008A11A000875
:101AE000A11A0008311C0008551B0008131C00082F
:101AF000A11A0008A11A0008531C0008A11A000826
:101B0000551B0008A11A0008A11A00081B1C000898
:101B10000B681A1D1B680A6004F1420684F8423003
:101B20000123A3E0256808682E0600F104030AD506
:101B300005680B60002D03DA2D236D4284F84330D5
:101B40005E480A2319E015F0400F05680B6018BFC6
:101B50002DB2EFE70B682568181D0860280601D52F
:101B60001D6802E06906FBD51D8854486F2F0CBF25
:101B700008230A23002184F843106668A660002E1B
:101B8000A2BF216821F0040121600DB9002E4DD0C3
:101B90001646B5FBF3F103FB1157C75D06F8017D4F
:101BA0002F46BB420D46F4D9082B0BD12368DF0723
:101BB00008D5236961689942DEBF302306F8013CED
:101BC00006F1FF36921B2261CDF800A04B4603AA16
:101BD00021464046FFF7E2FE01304CD14FF0FF3086
:101BE00004B0BDE8F087354884F8457023680E6876
:101BF0001F0656F8045B0E6014D5D90744BF43F0A6
:101C0000200323601DB9236823F0200323601023E1
:101C1000B0E7236843F0200323607823284884F842
:101C20004530E3E75E0648BFADB2E6E71646BBE7E0
:101C30000B68266860691D1D0D6035061B6801D59F
:101C4000186002E07106FBD5188000232361164658
:101C5000BAE70B681A1D0A601E68626800213046E8
:101C600000F036F808B1801B6060636823610023D0
:101C700084F84330A8E72369324649464046D047B6
:101C80000130ABD023689B0713D4E068039B9842D4
:101C9000B8BF1846A4E70123324649464046D0471C
:101CA00001309BD00135E36803995B1AAB42F2DC4B
:101CB000EBE7002504F11906F5E700BFA1210008B4
:101CC000B221000800000000000000000000000039
:101CD00001F0FF01102A2BDB10F0070F08D010F8DD
:101CE000013B013A8B422DD010F0070F42B3F6D1E1
:101CF000F0B441EA012141EA014122F007047FF0FA
:101D000000070023F0E80256083C85EA010586EA50
:101D1000010685FA47F5A3FA87F586FA47F6A5FA8C
:101D200087F68EB9EED1F0BC01F0FF0102F0070298
:101D300032B110F8013B013A83EA010313B1F8D143
:101D40000020704701387047002D06BF3546033824
:101D5000073815F0010F07D1013015F4807F02BF5D
:101D6000013015F4C03F0130F0BC0138704700BFAE
:101D70000A44914200F1FF3300D1704710B511F8C9
:101D8000014B03F8014F9142F9D110BD884210B5C3
:101D900001EB020402D98442234607D8431EA14224
:101DA00008D011F8012B03F8012FF8E7024401468F
:101DB0008A4200D110BD13F8014D02F8014DF7E73A
:101DC000F8B5074614460E4621B9BDE8F84011465D
:101DD000FFF778BB22B9FFF737FC25462846F8BD48
:101DE00000F014F8A0420FD221463846FFF76AFBF4
:101DF00005460028F2D031462246FFF7B9FF3146AA
:101E00003846FFF721FCE9E73546E7E751F8043C9F
:101E1000181F002BBCBF0B58C01870472E2E2F73F5
:101E2000797374656D2F7372632F73746D333266BB
:101E3000342D68616C2F73746D3332663478785F3B
:101E400068616C5F636F727465782E6300000000D8
:101E50002E2E2F73797374656D2F7372632F7374C5
:101E60006D333266342D68616C2F73746D33326656
:101E70003478785F68616C5F7263632E6300000082
:101E80000000000001020304010203040607080920
:101E900061626F727428292C2065786974696E6795
:101EA0002E2E2E003A7474006173736572745F7025
:101EB0006172616D2829206661696C65643A2066EB
:101EC000696C6520222573222C206C696E652025A3
:101ED000640A0000537461636B206672616D653A39
:101EE0000A000000205230203D2020253038580ABA
:101EF00000000000205231203D2020253038580AB3
:101F000000000000205232203D2020253038580AA1
:101F100000000000205233203D2020253038580A90
:101F20000000000020523132203D20253038580A70
:101F300000000000204C52203D2020253038580A57
:101F400000000000205043203D2020253038580A52
:101F50000000000020505352203D20253038580A00
:101F6000000000004653522F4641523A0A0000003A
:101F70002043465352203D2020253038580A000087
:101F80002048465352203D2020253038580A000072
:101F90002044465352203D2020253038580A000066
:101FA0002041465352203D2020253038580A000059
:101FB000204D4D464152203D20253038580A000022
:101FC0002042464152203D2020253038580A00004A
:101FD0004D6973630A000000204C522F4558435F3F
:101FE00052455455524E3D20253038580A000000C5
:101FF0005B486172644661756C745D0A00000000A4
:102000005B4275734661756C745D0A005B55736164
:1020100067654661756C745D0A0000000000000091
:102020000000000001020304060708090020202028
:102030002020202020202828282828202020202078
:102040002020202020202020202020202088101048
:1020500010101010101010101010101010040404A4
:102060000404040404040410101010101010414162
:102070004141414101010101010101010101010150
:102080000101010101010101101010101010424264
:102090004242424202020202020202020202020220
:1020A00002020202020202021010101020000000C0
:1020B0000000000000000000000000000000000020
:1020C0000000000000000000000000000000000010
:1020D0000000000000000000000000000000000000
:1020E00000000000000000000000000000000000F0
:1020F00000000000000000000000000000000000E0
:1021000000000000000000000000000000000000CF
:1021100000000000000000000000000000000000BF
:1021200000000000000000000000000000000000AF
:10213000000000000000000000000000000000009F
:10214000000000000000000000000000000000008F
:10215000000000000000000000000000000000007F
:10216000000000000000000000000000000000006F
:10217000000000000000000000000000000000005F
:10218000000000000000000000000000000000004F
:10219000232D302B2000686C4C0065666745464750
:1021A00000303132333435363738394142434445D3
:1021B0004600303132333435363738396162636442
:0321C00065660051
:1021C400785634120024F400291300083913000847
:1021D40049130008180000200000000050210008E6
:1021E40070210008302100080000000000000000F9
:1021F40000000000000000000000000000000000DB
:1022040000000000000000000000000000000000CA
:1022140000000000000000000000000000000000BA
:1022240000000000000000000000000000000000AA
:0C2234000000000000000000325476980A
:040000050800018965
:00000001FF
