:020000040800F2
:1000000000000220B9020008BF020008C302000875
:1000100035030008390300088103000800000000D0
:10002000000000000000000000000000C9030008FC
:10003000CD03000800000000D1030008A917000844
:10004000E5030008E5030008E5030008E5030008F0
:10005000E5030008E5030008E5030008E5030008E0
:10006000E5030008E5030008E5030008E5030008D0
:10007000E5030008E5030008E5030008E5030008C0
:10008000E5030008E5030008E5030008E5030008B0
:10009000E5030008E5030008E5030008E5030008A0
:1000A000E5030008E5030008E5030008E503000890
:1000B000E5030008E5030008E5030008E503000880
:1000C000E5030008E5030008E5030008E503000870
:1000D000E5030008E5030008E5030008E503000860
:1000E000E5030008E5030008E5030008E503000850
:1000F000E5030008E5030008E5030008E503000840
:10010000E5030008E5030008E5030008E50300082F
:10011000E5030008E5030008E5030008E50300081F
:10012000E5030008E5030008E5030008E50300080F
:10013000E5030008E5030008E5030008E5030008FF
:10014000E5030008E5030008E5030008E5030008EF
:10015000E5030008E5030008E5030008E5030008DF
:10016000E5030008E5030008E5030008E5030008CF
:10017000E5030008E5030008E503000800000000AF
:10018000E5030008E503000800B583B001F064F85A
:10019000384B394A1360394A1360394900E0214627
:1001A000384B99420BD20A684B6801F10C048868FD
:1001B0009842F4D952F8041B43F8041BF8E72E4B7D
:1001C0001A68314B9A4200D0FEE72C4B1A682F4B2D
:1001D0009A42F9D1274B2E4A13602E4A13602E4AB9
:1001E00005E0002043F8040B9A42FAD80A462B4B4C
:1001F0009A4204D2114651F8083B5268F4E7244B66
:100200001B6813B9234B1B6803B1FEE701F0E8F943
:10021000694601A800F02EFE214C224BE41AA410DE
:10022000002504E01F4B53F8253098470135AC42B8
:10023000F8DC1D4C1D4BE41AA410002504E01B4BF8
:1002400053F8253098470135AC42F8DC0099019805
:1002500001F006FA0546164C164BE41AA41004E009
:10026000013C144B53F824309847002CF8DC284606
:1002700000F09CFDBABADECA000000207800002021
:10028000E8030008000400087856341232547698C7
:100290007C0000202407002000040008100400084F
:1002A00010040008100400081004000810040008DE
:1002B000100400081004000808B5FFF765FF00BE31
:1002C000FEE71EF0040F0CBFEFF30880EFF3098088
:1002D0007146414A10472DE9F04182B004460D466F
:1002E000124B5F6BD3F838809E6A1B6B13F0020FC2
:1002F00003D00E4BDB6A002B0BDB0D4800F04EFFEA
:10030000009543463A463146204600F0B1FF00BE14
:10031000FEE74BF6AB6101F025F80028EDD0034B6A
:100320004FF00042DA6202B0BDE8F08100ED00E07B
:10033000542D000800BEFEE71EF0040F0CBFEFF3C3
:100340000880EFF309807146244A10472DE9F041F7
:1003500082B004460D46084B5F6BD3F838809E6A26
:10036000064800F01BFF009543463A4631462046BA
:1003700000F07EFF00BEFEE700ED00E0642D000807
:100380001EF0040F0CBFEFF30880EFF309807146F5
:10039000134A10472DE9F04182B004460D46084B40
:1003A0005F6BD3F838809E6A064800F0F7FE009530
:1003B00043463A463146204600F05AFF00BEFEE76B
:1003C00000ED00E0702D000800BEFEE700BEFEE775
:1003D00000BEFEE770470000D70200084D0300088A
:0803E0009503000800BEFEE7D2
:1003E8004C2F0008000000207C0000204C2F000843
:1003F80000000010000000107C00002028070020EA
:080408000000001000000010CC
:1004100010B50446074B1868074BA3FB0030800952
:1004200000F090F8002221464FF0FF3000F044F831
:10043000002010BD04000020D34D621008B50B4B06
:100440001A6842F400721A601A6842F480621A60F4
:100450001A6842F480721A60032000F00FF80F202F
:10046000FFF7D6FF01F0D8F9002008BD003C02409C
:10047000014B1868704700BF3002002010B50446D9
:10048000C31E042B0FD80A4AD36823F4E0631B046D
:100490001B0C240204F4E064234343F0BF6343F4E1
:1004A0000033D36010BDA421024800F06DFEEAE7DE
:1004B00000ED00E0802B000870B505460C4616469E
:1004C0000F2A25D80F2C28D81B4BDB68C3F3022337
:1004D000C3F10701042928BF04211A1D062A21D9C6
:1004E000033B4FF0FF3202FA01F124EA01049C4081
:1004F00002FA03F326EA03063443002D14DB240139
:10050000E4B205F1604505F5614585F8004370BD2D
:10051000BC210A4800F038FED4E7BD21074800F0AE
:1005200033FED1E70023DCE705F00F052401E4B238
:10053000034B5C55EBE700BF00ED00E0802B0008AB
:1005400014ED00E00138B0F1807F0AD2064B58600C
:10055000064AF02182F823100020986007221A60D2
:1005600070470120704700BF10E000E000ED00E0A0
:1005700010B50446042800D038B9042C0BD0094A21
:10058000136823F00403136010BD40F2B311064852
:1005900000F0FAFDF1E7034A136843F00403136027
:1005A000F2E700BF10E000E0802B000830B583B018
:1005B000044603680F2B29D8236813F0010F3DD0A0
:1005C0006368012B01D9052B25D1A24B9B6803F051
:1005D0000C03042B29D09F4B9B6803F00C03082BC2
:1005E0001ED022799C4B1A706368002B50D0FFF705
:1005F0003FFF0546974B1B6813F4003F1ED1FFF7E2
:1006000037FF401B6428F5D90320E3E1F521934827
:1006100000F0BAFDD0E7FA21904800F0B5FDD4E72C
:100620008C4B5B6813F4800FDBD08A4B1B6813F490
:10063000003F03D06368002B00F0C781236813F0EC
:10064000020F5CD0E368012B31D823691F2B34D80B
:10065000804B9B6813F00C0F3AD07E4B9B6803F0E5
:100660000C03082B2FD0E368002B73D07C4B0122A6
:100670001A60FFF7FDFE0546764B1B6813F0020F6C
:1006800059D1FFF7F5FE401B0228F5D90320A1E15F
:10069000FFF7EEFE05466F4B1B6813F4003FCDD00D
:1006A000FFF7E6FE401B6428F5D9032092E14FF4E2
:1006B00096716A4800F068FDC7E740F22D1167485F
:1006C00000F062FDC4E7634B5B6813F4800FCAD18E
:1006D000604B1B6813F0020F03D0E368012B40F05E
:1006E00076815C48036823F0F8032169F82292FAC6
:1006F000A2F2B2FA82F201FA02F213430360236813
:1007000013F0080F50D06369012B35D86369002BB3
:1007100038D0544B01221A60FFF7AAFE05464D4B14
:100720005B6F13F0020F3FD1FFF7A2FE401B0228C0
:10073000F5D903204EE14748036823F0F803216907
:10074000F82292FAA2F2B2FA82F201FA02F213430A
:100750000360D4E7424B00221A60FFF789FE05468A
:100760003C4B1B6813F0020FC9D0FFF781FE401B02
:100770000228F5D903202DE140F26D11374800F031
:1007800003FDC3E7374B00221A60FFF771FE0546F1
:10079000304B5B6F13F0020F06D0FFF769FE401B72
:1007A0000228F5D9032015E1236813F0040F5FD068
:1007B000A368012B01D9052B1FD100230193254BE1
:1007C0001A6C42F080521A641B6C03F08053019340
:1007D000019B254A136843F480731360FFF748FEBA
:1007E0000546214B1B6813F4807F0CD1FFF740FEB8
:1007F000401B0228F5D90320ECE040F2971117487E
:1008000000F0C2FCD9E7227A184B1A70A36883B1B2
:10081000FFF72EFE05460F4B1B6F13F0020F27D17B
:10082000FFF726FE401B41F288339842F3D903209C
:10083000D0E0FFF71DFE0546064B1B6F13F0020FBD
:1008400016D0FFF715FE401B41F288339842F3D9CA
:100850000320BFE00038024002380240B42B0008F9
:1008600000004742800E474200700040703802404E
:10087000A369022B39D8A369002B00F0AA80574A3C
:10088000926802F00C02082A00F0A680022B40F0C9
:100890008880E36913B1B3F5800F2CD1236A3F2B15
:1008A0002FD8636A323BB3F5BF7F30D8A36A022BDF
:1008B00005D0042B03D0062B01D0082B2DD1E36AE1
:1008C000043B0B2B2FD8464B00221A60FFF7D0FDBC
:1008D0000546424B1B6813F0007F2AD0FFF7C8FD86
:1008E000401B0228F5D9032074E04FF4E6713D481F
:1008F00000F04AFCBFE740F2D5113A4800F044FC52
:10090000CCE74FF4EB71374800F03EFCC9E740F20A
:10091000D711344800F038FCC8E74FF4EC71314887
:1009200000F032FCCBE740F2D9112E4800F02CFC4D
:10093000C9E7E369226A1343616A47F6C07292FA13
:10094000A2F2B2FA82F201FA02F21343A26A520848
:10095000013A4FF4403191FAA1F1B1FA81F18A40A4
:100960001343E16A4FF0706292FAA2F2B2FA82F295
:1009700001FA02F21343194A5360194B01221A601B
:10098000FFF776FD0446154B1B6813F0007F06D178
:10099000FFF76EFD001B0228F5D903201AE00020A6
:1009A00018E00F4B00221A60FFF762FD04460B4B64
:1009B0001B6813F0007F06D0FFF75AFD001B0228CA
:1009C000F5D9032006E0002004E0012002E0012028
:1009D00000E0002003B030BD0120FBE700380240FA
:1009E00060004742B42B0008214B9B6803F00C03C6
:1009F000042B38D0082B38D11D4B586800F03F002D
:100A00005B6813F4800F1ED01A4AB2FBF0F2184B49
:100A1000586847F6C073184093FAA3F3B3FA83F308
:100A2000D84000FB02F0124B5B6803F440334FF4F4
:100A3000403292FAA2F2B2FA82F2D34001335B0062
:100A4000B0FBF3F070470C4AB2FBF0F2084B586869
:100A500047F6C073184093FAA3F3B3FA83F3D84070
:100A600000FB02F0DFE7034870470348704700BF10
:100A70000038024000127A000024F40070B50446E9
:100A80000D460368013B0E2B5ED8072D62D88C4BB8
:100A90001B6803F00F03AB4208D2EBB2884A137015
:100AA000136803F00F03AB4240F00481236813F096
:100AB000020F18D0A3687BB1802B0DD0902B0BD0E8
:100AC000A02B09D0B02B07D0C02B05D0D02B03D042
:100AD000E02B01D0F02B43D17A4A936823F0F00346
:100AE000A1680B439360236813F0010F7FD0636804
:100AF000032B3BD86368012B3ED09A1E012A42D9B2
:100B0000704A126812F0020F00F0D6806D498A68B0
:100B100022F0030213438B60FFF7AAFC06466368CA
:100B2000012B37D0022B44D0032B51D0654B9B684F
:100B300013F00C0F5BD0FFF79BFC801B41F2883356
:100B40009842F3D90320A8E040F237215E4800F034
:100B50001BFB9AE74FF40E715B4800F015FB96E71C
:100B600040F24F21584800F00FFBB5E740F2562104
:100B7000554800F009FBBDE7524A126812F4003FE5
:100B8000C4D1012089E04F4A126812F0007FBDD124
:100B9000012082E04B4B9B6803F00C03042B26D012
:100BA000FFF766FC831B41F288329342F2D903209F
:100BB00073E0444B9B6803F00C03082B17D0FFF73E
:100BC00057FC801B41F288339842F2D9032064E03D
:100BD0003C4B9B6803F00C030C2B08D0FFF748FC40
:100BE000801B41F288339842F2D9032055E0344B00
:100BF0001B6803F00F03AB4207D9EAB2304B1A70FF
:100C00001B6803F00F03AB4258D1236813F0040FA5
:100C100014D0E3685BB1B3F5805F08D0B3F5A05F93
:100C200005D0B3F5C05F02D0B3F5E05F36D1254AF9
:100C3000936823F4E053E1680B439360236813F057
:100C4000080F15D023695BB1B3F5805F08D0B3F509
:100C5000A05F05D0B3F5C05F02D0B3F5E05F23D14C
:100C6000184A936823F46043216943EAC1039360FF
:100C7000FFF7BAFE134B9B6803F0F003F02292FAE1
:100C8000A2F2B2FA82F2D340104AD35CD840104BA1
:100C900018600F20FFF7BCFB002070BD4FF42D71D2
:100CA000094800F071FAC2E740F2BB21064800F0A3
:100CB0006BFAD5E70120F0E70120EEE70120ECE731
:100CC000003C024000380240B42B0008E42B00082E
:100CD00004000020014B1868704700BF040000208A
:100CE00008B5034800F074FA012000F05FF800BF77
:100CF000F42B000808B503460C4A12685AB10B4A97
:100D00001068033323F003030344094A934206D8CF
:100D1000064A136008BD054A06491160EFE700F076
:100D20007DFD0C2303604FF0FF30F3E780000020CF
:100D300000FC01202807002030B5132400252046A0
:100D40002946ABBE0446204630BD38B5044600F007
:100D500065FD0546FFF7F0FF2860204638BDB0F17D
:100D6000FF3F00D0704708B5FFF7EFFF08BD000058
:100D700010B504460B4B186808B1836B5BB1132C9C
:100D80000CD8094B53F83430B3F1FF3F08D0064874
:100D900000EBC40010BD00F09FFDF0E70020F9E774
:100DA0000020F7E7140000200801002000B530B94A
:100DB000044D182420462946ABBE0446FEE7024DEA
:100DC000F7E700BF26000200230002002DE9F041F2
:100DD00084B0234F01970326039600230293012436
:100DE00001AD20462946ABBE80461E4BC3F80080AD
:100DF000019703960423029320462946ABBE804602
:100E0000194BC3F8008001970396082302932046EC
:100E10002946ABBE0446154B1C60B4F1FF3F01D020
:100E200000230AE0104B1A68104B1A60F8E7104ACA
:100E30004FF0FF3142F833100133132BF7DD0C4B29
:100E4000084A12681A6000225A60074909689960C6
:100E5000DA600649096819615A6104B0BDE8F08199
:100E6000082C00080001002004010020FC000020E4
:100E7000080100202DE9F04383B0814688462A4BC3
:100E800000934F23019315246D4620462946ABBE9F
:100E90000446ACBB2046244B002283F84F20009A26
:100EA0002646254607E001321E46204B43F8242003
:100EB00001340125013292F90030FBB165B91C49BA
:100EC0005F56002FF6DB092BF4D0082C16DC222B02
:100ED000E9D0272BE9D1E6E736B19E42EAD10023DB
:100EE000137006460546E5E711495956002901DB0E
:100EF000092BDFD1002313703546DBE73CB900E056
:100F00000024094B00221A70084A13600134074B71
:100F1000002243F82420C9F80040C8F80030FFF749
:100F200055FF03B0BDE8F08384000020D40000200A
:100F3000B12D000830B585B00190029103920624CE
:100F400001AD20462946ABBE04462046FFF707FF09
:100F500005B030BD70B50D461446FFF709FF68B106
:100F60000646224629460068FFF7E4FFB0F1FF3F3E
:100F700003D0201A73680344736070BD00F04EFC08
:100F8000092303604FF0FF30F7E7F0B583B00C465C
:100F90001546FFF7EDFEC0B10646022D1CD8012D07
:100FA00021D0022D29D03368009301940A256F4681
:100FB00028463946ABBE05462846FFF7D0FE002836
:100FC0002BDB7460204603B0F0BD00F027FC092342
:100FD00003604FF0FF30F6E700F020FC16230360BB
:100FE0004FF0FF30EFE74368E418DCD500F016FC63
:100FF000162303604FF0FF30E5E7036800930C25EC
:101000006F4628463946ABBE05462846FFF7A7FE81
:10101000B0F1FF3FD7D00444C5E74FF0FF30D2E72F
:1010200008B5FFF7B2FF08BD30B585B00190029159
:101030000392052401AD20462946ABBE0446204656
:10104000FFF78DFE05B030BD70B50D461446FFF7B5
:101050008FFE70B10646224629460068FFF7E4FF7E
:10106000031E11DBE01A7268024472609C4207D0D2
:1010700070BD00F0D3FB092303604FF0FF30F7E7AA
:101080000020FFF762FEF3E74FF0FF30F0E730B5E6
:1010900083B00190022401AD20462946ABBE044630
:1010A0002046FFF75CFE03B030BD000038B50446B3
:1010B000FFF75EFE80B10546601E012804D80C4B88
:1010C0009A681B699A420ED02868FFF7E0FF10B9B2
:1010D0004FF0FF332B6038BD00F0A0FB0923036005
:1010E0004FF0FF30F7E74FF0FF332B600020F2E7BF
:1010F0000801002070B50C46FFF73AFEA8B106467D
:10110000636843F4005363604FF4806363640C25A9
:1011100028463146ABBE05462846FFF720FEB0F113
:10112000FF3F01D02061002070BD00F077FB092354
:1011300003604FF0FF30F7E738B505460C465822FC
:101140000021204600F068FC21462846FFF7D2FF28
:1011500038BD38B5FFF70CFE80B10546092420469E
:101160002946ABBE04462046012C06D000F056FBB3
:101170000446FFF7E1FD2060002038BD00F04EFB83
:10118000092303600020F8E708B50A460146024833
:1011900000F004F8FFF7A4FD0C2C00080FB400B514
:1011A00083B004AB53F8042B01938021074800F06F
:1011B0003FFD002804DC03B05DF804EB04B0704789
:1011C0000146024800F044F8F5E700BFA8010020FE
:1011D00010B5044600F0F7FC0146204600F038F850
:1011E0000121024800F034F810BD00BFD02C0008E7
:1011F0002DE9F04385B004460F46435633BB042522
:1012000028462146ABBE0446384605B0BDE8F0830B
:1012100014F9010B04AA1A4402F8100C0133AB4272
:10122000F6D304AA1344002203F8102C4FF004084C
:10123000E94640464946ABBE8046761B002EE3D0C9
:101240003546102E28BF10250023E8E70E46F5E7A7
:1012500008B5FFF7CDFF08BD08B500F003F9024A55
:10126000024B9A6008BD00BF0000000800ED00E0DE
:10127000F8B504460D4617461E462748FFF78EFF71
:1012800021682648FFF78AFF61682548FFF786FF37
:10129000A1682448FFF782FFE1682348FFF77EFF3B
:1012A00021692248FFF77AFF61692148FFF776FF3D
:1012B000A1692048FFF772FFE1691F48FFF76EFF41
:1012C0001E48FFF76BFF29461D48FFF767FF1D4CBF
:1012D000E16A1D48FFF762FF216B1C48FFF75EFFC4
:1012E000E16B1B48FFF75AFF15F0800F0AD115F488
:1012F000004F0CD11748FFF751FF06991648FFF72A
:101300004DFFF8BD39461548FFF748FFEFE7314676
:101310001348FFF743FFEDE7382C0008482C00087E
:10132000582C0008682C0008782C0008882C00082D
:10133000982C0008A82C0008B82C0008C82C00081D
:10134000D42C000800ED00E0E42C0008F42C000888
:10135000042D0008342D00083C2D0008142D000831
:10136000242D000838B583691B888B4201D00020EA
:1013700038BD044603684568013B302B69D8DFE877
:1013800003F046211C1C5E30332D191968191919F8
:1013900019193619246819276839686868686868EF
:1013A00068686868686868686868686868686868BD
:1013B000681919004FF0FF330360A3690233A3617A
:1013C0000120D5E700230360F7E700230360F4E77B
:1013D00000232B606B60AB60EB60EEE700230360E3
:1013E000EBE7AB680360E8E700230360E5E7002371
:1013F0000360E2E7BFF34F8F1749CA6802F4E06267
:10140000164B1343CB60BFF34F8F00BFFDE714496A
:10141000286800F0CEFB40B96B6813B90123236044
:10142000CBE7042B05D0082B06D04FF0FF33236009
:10143000C3E702232360C0E703232360BDE72B68D3
:10144000023B012B02D9AB680360B6E700230360BF
:10145000B3E700208CE700BF00ED00E00400FA05D0
:10146000082C00080C4B1A6842F001021A60002197
:1014700099601A6822F0847222F480321A60074A56
:101480005A601A6822F480221A60D960044B4FF027
:1014900000629A60704700BF00380240103000249C
:1014A00000ED00E0224B9B6803F00C03042B14D0EA
:1014B000082B16D01BB11F4B1F4A1A6002E01D4BB0
:1014C0001D4A1A601A4B9B68C3F303131B4AD15C75
:1014D000184A1368CB4013607047164B184A1A60BD
:1014E000F0E7134B5A685B6803F03F0312F4800F78
:1014F00013D0134AB2FBF3F20D4B5B68C3F38813AE
:1015000003FB02F30A4A5268C2F30142013252005D
:10151000B3FBF2F3074A1360D4E7074AB2FBF3F2D6
:10152000034B5B68C3F3881303FB02F3EAE700BFD6
:1015300000380240040000200024F400802D000840
:1015400000127A0030B595B000240194214B1A6C3A
:1015500042F080521A641B6C03F080530193019B8C
:1015600002941D4B1A6842F480421A601B6803F40F
:1015700080430293029B0123089309934FF4800355
:101580000F93082310934FF4A8731193022512951B
:10159000072313930E9508A8FFF708F80F2303936A
:1015A000049505944FF4A05306934FF4805307938A
:1015B000052103A8FFF762FAFFF78CFB074BA3FB9B
:1015C00000308009FEF7BEFF0420FEF7D1FF15B002
:1015D00030BD00BF0038024000700040D34D6210A3
:1015E00008B5FEF72BFFFFF7ADFFFFF75BFF08BD68
:1015F00010B582B001230193002401E000F0E8F867
:101600000134072CFAD101A9024B186800F0EEF85A
:101610000024F3E73802002010B582B003230193C1
:10162000002401E000F0D4F801340C2CFAD101A917
:10163000024B186800F0DAF80024F3E738020020C3
:1016400010B500242146044B186800F0DAF8214652
:10165000024800F043FAF4E738020020902D000819
:1016600008B572B600210A4800F0BEF8094B002206
:101670001A6000F017F8084B1A68084B1968084BF5
:10168000186800F037F8012000F074F8FEE700BF9A
:101690006002002038020020100000200C00002012
:1016A0000800002072B6044B1B68044AA2FB032307
:1016B0009B09034A1360704704000020D34D621059
:1016C0005C02002010B4094A4FF4C87303FB00F316
:1016D000D1184FF08074C1F88C4103F5A8731344FE
:1016E000034A42F8303010BC704700BF6802002047
:1016F000440200202DE9F04180460F4616460024A2
:1017000008E0104B03EBC402103353602046FFF790
:10171000D9FF0134022C09DC002CF2D0631E094DE4
:1017200005EBC30305EBC4056B60EFE7064BC3F89D
:101730008881C3F81873C3F8A864044B014A1A607F
:10174000BDE8F08144020020680200203C02002035
:1017500007480268D2F800D0BDE8F00F0FBC5DF872
:1017600004CB01B05DF804EB01B062B67047000035
:101770003C02002008B5094A002111609160084B25
:10178000F02183F82310074B1B6803FB00F3013B98
:10179000536007231360FFF7DBFF08BD10E000E094
:1017A00000ED00E05C02002072B62DE9F00F074862
:1017B0000168C1F800D001F1040109680160D1F8A5
:1017C00000D0BDE8F00F62B6704700003C02002078
:1017D000044B00229A6003F6F4434FF080621A60D3
:1017E000704700BF10E000E00170704710B504467C
:1017F00072B624B162B6FFF7EBFF72B6F9E762B6D4
:1018000010BD10B5044672B624B962B6FFF7E0FF0A
:1018100072B6F9E762B610BD70470000014B186858
:10182000704700BF14000020002310B50446C0E933
:101830000033C0E90433836081814366C2818361E0
:10184000194608225C3000F0E7F8054B6362054B4F
:10185000A362054BE362054B2462236310BD00BF06
:101860002D1B00084F1B0008871B0008AB1B00083E
:10187000014900F0AFB800BF9D1D000870B54A1EB9
:10188000682555430E4605F1740100F0CDF8044675
:1018900040B10021C0E900160C30A06005F16802DB
:1018A00000F0BAF8204670BD014800F0B3B800BFA0
:1018B00020070020014800F0AEB800BF200700203C
:1018C000014800F0A7B800BF1B070020014800F046
:1018D000A2B800BF1B07002010B50446FFF7F0FFB9
:1018E000A3691BB1BDE81040FFF7F0BFC4E9123394
:1018F0002365134B134A1B68A262A34204BF012352
:10190000A361204600F020F86060204600F01CF83B
:10191000A060204600F018F80022E0600421606812
:10192000FFF782FFA06801220921FFF77DFFE06831
:1019300002221221FFF778FF0123A361D2E700BF43
:10194000142F000871180008F8B50746FFF7ACFF20
:101950001E4B1E68B36913B93046FFF7BDFF48360A
:10196000D6E90134013B03D533680BB33668F7E79A
:10197000B4F90C50D5B9164BE36004F15800656614
:1019800000F047F8FFF796FFC4E90155C4E9045594
:101990002560A5610822294604F15C0000F03CF8AE
:1019A000C4E90D55C4E912552046F8BD6834D9E79D
:1019B00004213846FFF762FF044630600028D5D185
:1019C000FFF778FF0C233B60EEE700BF142F000801
:1019D0000100FFFF2DE9F8430646884600F1480460
:1019E0000027D4E90195B9F1010905D52468002C37
:1019F000F7D13846BDE8F883AB89012B07D9B5F993
:101A00000E30013303D029463046C04707436835BE
:101A1000E9E770477047704702440346934200D19C
:101A2000704703F8011BF9E7F8B5CD1C25F0030555
:101A300008350C2D38BF0C25002D064601DBA942C8
:101A400003D90C2333600020F8BD00F0F5F92149DB
:101A50000A6814469CB9204F3B6823B9214630469A
:101A600000F054F838602946304600F04FF8431C27
:101A700023D10C233360304600F0E4F9E3E7236818
:101A80005B1B17D40B2B03D923601C44256004E097
:101A90006368A2420CBF0B605360304600F0D2F97D
:101AA00004F10B00231D20F00700C21ACCD01B1A32
:101AB000A350C9E722466468CCE7C41C24F00304A1
:101AC000A042E3D0211A304600F020F80130DDD1E9
:101AD000CFE700BF280200202C0200200FB40A4BE1
:101AE00013B51C6824B1A36913B92046FFF7F4FEAF
:101AF00005AB049AA1680193204600F07BFB02B07D
:101B0000BDE8104004B070471400002038B5064D01
:101B10000023044608462B60FFF7ECF8431C02D173
:101B20002B6803B1236038BD3402002010B50C4689
:101B3000B1F90E1000F022FE0028ABBF636DA3893F
:101B40001B1823F48053ACBF6365A38110BD2DE93E
:101B5000F0411F468B89DB0505460C46164605D528
:101B6000B1F90E100223002200F054F9A389B4F950
:101B70000E1023F48053A38132463B462846BDE82D
:101B8000F04100F063B810B50C46B1F90E1000F04A
:101B900041F9431CA38915BF606523F4805343F4C6
:101BA0008053A38118BFA38110BDB1F90E1000F0BE
:101BB0005FB810F8012B11F8013B012A28BF9A42A7
:101BC000F7D0D01A7047034613F8012B002AFBD137
:101BD000181A0138704730B5141E05469BB01846D8
:101BE00005DA8B232B604FF0FF301BB030BD4FF474
:101BF0000273ADF80C3014BF04F1FF332346029397
:101C000005934FF6FF7300910491ADF80E30024634
:101C10001E9B6946284600F0C5F9431CBCBF8B23B8
:101C20002B60002CE1D0009B00221A70DDE7000041
:101C300007B5009313460A46014603480068FFF7BC
:101C4000CAFF03B05DF804FB1400002038B5074D4F
:101C500004460846114600222A601A46FFF7F4F9A6
:101C6000431C02D12B6803B1236038BD340200202D
:101C700038B5064D0023044608462B60FFF716FAD8
:101C8000431C02D12B6803B1236038BD340200200D
:101C90008A892DE9F041054610070C4658D44B6857
:101CA000002B05DC0B6C002B02DC0020BDE8F08172
:101CB000E66A002EF9D0002312F480522F682B60C0
:101CC00032D0606DA3895A0705D56368C01A636B6B
:101CD0000BB1236CC01A00230246E66A216A28462B
:101CE000B047431CA38906D129681D292CD82A4A4C
:101CF000CA40D60728D500226260D9042269226032
:101D000004D5421C01D12B6803B96065616B2F605B
:101D10000029CAD004F14403994202D0284600F0B9
:101D200097F800206063C1E7216A01232846B04785
:101D3000411CC7D12B68002BC4D01D2B01D0162B02
:101D400001D12F60B1E7A38943F04003A381ADE740
:101D50000F69002FA9D093070E6808BF4B690F6069
:101D600018BF0023A6EB07088B60B8F1000F9CDDBD
:101D7000216AA66A43463A462846B047002806DC50
:101D8000A38943F04003A3814FF0FF308EE707445F
:101D9000A8EB0008E9E700BF0100402038B50B6957
:101DA00005460C4613B90025284638BD18B183698D
:101DB0000BB9FFF791FD144B9C421BD16C68B4F931
:101DC0000C30002BEFD0626ED00704D4990502D4FA
:101DD000A06DFFF71FFE28462146FFF759FF636EEF
:101DE000DA070546E0D4A3899B05DDD4A06DFFF793
:101DF00012FED9E7054B9C4201D1AC68DFE7044BEA
:101E00009C4208BFEC68DAE7D42E0008F42E0008E4
:101E1000B42E000838B5074D044608461146002286
:101E20002A601A46FFF7FCF8431C02D12B6803B165
:101E3000236038BD340200200148FFF7EBBD00BF2E
:101E40001C0700200148FFF7E6BD00BF1C0700206B
:101E500038B50546002945D051F8043C0C1F002B2D
:101E6000B8BFE418FFF7E8FF1F4A1368104633B9FC
:101E7000636014602846BDE83840FFF7E3BFA34223
:101E80000BD921686218934204BF1A685B686360CB
:101E900004BF521822600460ECE71A465B680BB17D
:101EA000A342FAD911685018A0420BD1206801440E
:101EB000501883421160DDD118685B68536001449B
:101EC0001160D7E702D90C232B60D3E720682118D3
:101ED0008B4204BF19685B68636004BF0918216006
:101EE0005460C7E738BD00BF280200202DE9F04745
:101EF0008E689E4282460C4690461F4638D88A8994
:101F000012F4906F32D025680969A5EB0109656963
:101F100005EB450505EBD57501334B446D109D422E
:101F200038BF1D46530531D52946FFF77DFD0646CE
:101F300050B90C23CAF80030A38943F04003A381B1
:101F40004FF0FF30BDE8F08721694A4600F0A0FD60
:101F5000A38923F4906343F08003A3812661656124
:101F60004E44A5EB09052660A5603E46BE4200D959
:101F70003E4632462068414600F098FDA36822683C
:101F80009B1B3244A36022600020DBE72A4600F05E
:101F9000A7FD06460028E1D121695046FFF758FF0A
:101FA000C7E700002DE9F04F98468B891B069DB0CE
:101FB00007460D4614460ED50B6963B94021FFF75D
:101FC00033FD2860286120B90C233B604FF0FF30BF
:101FD000D1E040236B610023099320238DF8293041
:101FE000CDF80C803023DFF8A8818DF82A304FF02F
:101FF000010923469A4613F8012B0AB1252AF9D183
:10200000BAEB040B0BD05B46224629463846FFF755
:102010006DFF013000F0AA80099A5A4409929AF89B
:102020000030002B00F0A28000234FF0FF32CDE9FA
:1020300005230AF1010A049307938DF853301A938C
:102040005446052214F8011B514800F0D1FC049AB3
:10205000D8B9D00644BF20238DF85330110744BFB0
:102060002B238DF853309AF800302A2B15D0079A7D
:10207000544600204FF00A0C214611F8013B303B3A
:10208000092B4ED9B0B1079214E0A0EB080309FA6E
:1020900003F313430493A246D2E7039B191D1B6865
:1020A0000391002BBBBF5B4242F0020207930793F0
:1020B000B8BF049223782E2B0CD163782A2B35D10C
:1020C000039B1A1D1B680392002BB8BF4FF0FF3310
:1020D00002340593DFF8C8A021780322504600F0AF
:1020E00087FC40B14023A0EB0A0003FA00F0049BF8
:1020F00003430134049314F8011B26488DF828107B
:10210000062200F075FC002838D0234B1BBB039B34
:10211000073323F0070308330393099B33440993E0
:1021200067E70CFB02320C460120A5E700230134CF
:10213000059319464FF00A0C204610F8012B303A4F
:10214000092A03D9002BC5D00591C3E70CFB012157
:1021500004460123F0E703AB00932A460F4B04A982
:102160003846AFF30080421C0646D6D1AB895B06E9
:102170003FF52CAF09981DB0BDE8F08F03AB00937D
:102180002A46064B04A9384600F0D2F9EBE700BF17
:10219000182F0008222F000800000000ED1E000884
:1021A0001E2F00089368013B002B10B4936007DAE0
:1021B0009469A34201DB0A2902D110BC00F0F0BAF5
:1021C0001368581C10601970084610BC7047F8B5A9
:1021D00006460F461446D518AC4201D1002007E050
:1021E00014F8011B3A463046FFF7DCFF431CF3D1DD
:1021F000F8BD00002DE9F04F0D469DB014469846FD
:10220000064618B183690BB9FFF766FB894B9D42FF
:102210001BD175686B6ED90705D4AB899A0502D4BA
:10222000A86DFFF7F7FBAB891B0701D52B69EBB94D
:102230002946304600F006FBC0B16B6EDC070ED5B8
:102240004FF0FF301DB0BDE8F08F7B4B9D4201D1B8
:10225000B568DFE7794B9D4208BFF568DAE7AB89DF
:102260009805EDD4A86DFFF7D6FBE9E700230993A5
:1022700020238DF82930CDF80C803023DFF8C08181
:102280008DF82A304FF0010923469A4613F8012BA6
:102290000AB1252AF9D1BAEB040B0BD05B462246D2
:1022A00029463046FFF793FF013000F0AA80099AD3
:1022B0005A4409929AF80030002B00F0A2800023C3
:1022C0004FF0FF32CDE905230AF1010A0493079389
:1022D0008DF853301A935446052214F8011B5848C0
:1022E00000F086FB049AD8B9D10644BF20238DF8AC
:1022F0005330130744BF2B238DF853309AF8003026
:102300002A2B15D0079A544600204FF00A0C21467C
:1023100011F8013B303B092B4ED9B0B1079214E0C4
:10232000A0EB080309FA03F313430493A246D2E790
:10233000039B191D1B680391002BBBBF5B4242F03E
:10234000020207930793B8BF049223782E2B0CD177
:1023500063782A2B35D1039B1A1D1B680392002B2F
:10236000B8BF4FF0FF3302340593DFF8E4A02178C3
:102370000322504600F03CFB40B14023A0EB0A0092
:1023800003FA00F0049B03430134049314F8011B87
:102390002C488DF82810062200F02AFB00283FD098
:1023A000294B1BBB039B073323F00703083303931D
:1023B000099B3B44099367E70CFB02320C46012062
:1023C000A5E700230134059319464FF00A0C204677
:1023D00010F8012B303A092A03D9002BC5D00591FA
:1023E000C3E70CFB012104460123F0E703AB009394
:1023F0002A46164B04A93046AFF300800746781CE6
:10240000D6D16B6ED90705D4AB899A0502D4A86DD5
:10241000FFF701FBAB895B063FF512AF099811E7A7
:1024200003AB00932A46094B04A9304600F080F81C
:10243000E4E700BFD42E0008F42E0008B42E0008F4
:10244000182F0008222F000800000000CF210008EC
:102450001E2F00082DE9F047164699468A680B6939
:10246000DDF820809342B8BF1346336091F84320D3
:1024700007460C460AB1013333602368990642BF10
:10248000336802333360256815F0060506D104F180
:10249000190AE36832689B1AAB4226DC94F84320A1
:1024A000131E226818BF012392062BD404F14302A5
:1024B00049463846C04701301ED02368E568326877
:1024C00003F00603042B08BFAD1AA36822690CBFF2
:1024D00025EAE57500259342C4BF9B1AED18002636
:1024E0001A34B5421AD1002008E001235246494669
:1024F0003846C047013003D14FF0FF30BDE8F087C8
:102500000135C6E7E1185A1C302081F84300224407
:1025100094F8451082F843100233C7E7012322469E
:1025200049463846C0470130E6D00136D9E70000B9
:102530002DE9FF470C469146277E0C99782F80465F
:102540009A4604F1430207D8622F0AD8002F00F000
:10255000D880582F00F0A38004F1420684F842701E
:102560003AE0A7F16303152BF6D801A050F823F049
:10257000C9250008DD25000859250008592500084F
:102580005925000859250008DD25000859250008AF
:10259000592500085925000859250008E926000892
:1025A0000D260008CB2600085925000859250008EB
:1025B0000B270008592500080D260008592500089A
:1025C00059250008D32600080B681A1D1B680A60ED
:1025D00004F1420684F842300123A3E0256808682C
:1025E0002E0600F104030AD505680B60002D03DAFE
:1025F0002D236D4284F843305E480A2319E015F01C
:10260000400F05680B6018BF2DB2EFE70B68256817
:10261000181D0860280601D51D6802E06906FBD573
:102620001D8854486F2F0CBF08230A23002184F80B
:1026300043106668A660002EA2BF216821F0040145
:1026400021600DB9002E4DD01646B5FBF3F103FB0A
:102650001157C75D06F8017D2F46BB420D46F4D9E0
:10266000082B0BD12368DF0708D5236961689942DD
:10267000DEBF302306F8013C06F1FF36921B2261D3
:10268000CDF800A04B4603AA21464046FFF7E2FEE4
:1026900001304CD14FF0FF3004B0BDE8F087354831
:1026A00084F8457023680E681F0656F8045B0E60B8
:1026B00014D5D90744BF43F0200323601DB9236814
:1026C00023F0200323601023B0E7236843F02003A6
:1026D00023607823284884F84530E3E75E0648BF46
:1026E000ADB2E6E71646BBE70B68266860691D1DBC
:1026F0000D6035061B6801D5186002E07106FBD538
:102700001880002323611646BAE70B681A1D0A6079
:102710001E6862680021304600F06AF908B1801B2B
:10272000606063682361002384F84330A8E723696D
:10273000324649464046D0470130ABD023689B071C
:1027400013D4E068039B9842B8BF1846A4E701235E
:10275000324649464046D04701309BD00135E368B8
:1027600003995B1AAB42F2DCEBE7002504F1190692
:10277000F5E700BF292F00083A2F000838B5074DAC
:1027800004460846114600222A601A46FEF7E2FB7C
:10279000431C02D12B6803B1236038BD34020020F2
:1027A000F8B50E461446054618B183690BB9FFF714
:1027B00093F8214B9C422BD16C68A369A360A38939
:1027C0001A072FD523696BB323692068C01A636980
:1027D000F6B28342374604DC21462846FFF7DEFA8C
:1027E00030BBA368013BA36023685A1C22601E70A3
:1027F00063690130834204D0A389DB0706D50A2E22
:1028000004D121462846FFF7C9FA88B93846F8BDF1
:102810000A4B9C4201D1AC68CFE7094B9C4208BFF0
:10282000EC68CAE72146284600F00CF80028CBD017
:102830004FF0FF37EAE700BFD42E0008F42E00085F
:10284000B42E0008324B70B51D6806460C4625B103
:10285000AB6913B92846FFF73FF82E4B9C420FD1C6
:102860006C68A389B4F90C2019072CD4DD0611D4A7
:102870000923336042F04003A3814FF0FF303EE074
:10288000254B9C4201D1AC68EBE7244B9C4208BF2E
:10289000EC68E6E7580712D5616B41B104F14403D7
:1028A000994202D03046FFF7D3FA00236363A3892D
:1028B00023F02403A3810023636023692360A38999
:1028C00043F00803A38123694BB9A38903F4207360
:1028D000B3F5007F03D02146304600F045F8A089CB
:1028E000B4F90C2010F001030AD00023A36063693F
:1028F0005B42A361236943B910F08000BAD170BD77
:10290000810758BF6369A360F4E70020F7E700BFC1
:1029100014000020D42E0008F42E0008B42E000865
:1029200070B50E46B1F90E10002996B014461D463A
:1029300007DA00232B60B3891A0610D44FF48063A2
:102940000EE06A4600F0F2F80028F2DB019A02F489
:102950007042A2F500535A425A412A60EEE74023E2
:102960000020236016B070BD8B8973B59D070646A5
:102970000C4607D504F147032360236101236361FB
:1029800002B070BD01AB6A46FFF7CAFF0099054669
:102990003046FFF749F848B9B4F90C309A05EFD43E
:1029A00023F0030343F00203A381E3E70D4BB3627B
:1029B000A389206043F08003A381009B6361019B96
:1029C00020615BB1B4F90E10304600F0C1F828B1B7
:1029D000A38923F0030343F00103A381A0890543E6
:1029E000A581CDE77118000800000000000000007C
:1029F00001F0FF01102A2BDB10F0070F08D010F8B0
:102A0000013B013A8B422DD010F0070F42B3F6D1B3
:102A1000F0B441EA012141EA014122F007047FF0CC
:102A200000070023F0E80256083C85EA010586EA23
:102A3000010685FA47F5A3FA87F586FA47F6A5FA5F
:102A400087F68EB9EED1F0BC01F0FF0102F007026B
:102A500032B110F8013B013A83EA010313B1F8D116
:102A60000020704701387047002D06BF35460338F7
:102A7000073815F0010F07D1013015F4807F02BF30
:102A8000013015F4C03F0130F0BC0138704700BF81
:102A90000A44914200F1FF3300D1704710B511F89C
:102AA000014B03F8014F9142F9D110BD884210B596
:102AB00001EB020402D98442234607D8431EA142F7
:102AC00008D011F8012B03F8012FF8E70244014662
:102AD0008A4200D110BD13F8014D02F8014DF7E70D
:102AE000F8B5074614460E4621B9BDE8F840114630
:102AF000FEF79ABF22B9FFF7ABF925462846F8BD85
:102B000000F036F8A0420FD221463846FEF78CFF7F
:102B100005460028F2D031462246FFF7B9FF31467C
:102B20003846FFF795F9E9E73546E7E738B5074D49
:102B300000230446084611462B60FEF7FDFA431CAD
:102B400002D12B6803B1236038BD00BF34020020DE
:102B500038B5064D0023044608462B60FEF7F9FA07
:102B6000431C02D12B6803B1236038BD340200201E
:102B700051F8043C181F002BBCBF0B58C0187047FD
:102B80002E2E2F73797374656D2F7372632F737488
:102B90006D333266342D68616C2F73746D33326619
:102BA0003478785F68616C5F636F727465782E63E8
:102BB000000000002E2E2F73797374656D2F7372D1
:102BC000632F73746D333266342D68616C2F7374A8
:102BD0006D3332663478785F68616C5F7263632E40
:102BE000630000000000000001020304010203046E
:102BF0000607080961626F727428292C20657869BC
:102C000074696E672E2E2E003A74740061737365BA
:102C100072745F706172616D2829206661696C65EC
:102C2000643A2066696C6520222573222C206C6929
:102C30006E652025640A0000537461636B20667220
:102C4000616D653A0A000000205230203D202025A9
:102C50003038580A00000000205231203D20202545
:102C60003038580A00000000205232203D20202534
:102C70003038580A00000000205233203D20202523
:102C80003038580A0000000020523132203D202503
:102C90003038580A00000000204C52203D202025EA
:102CA0003038580A00000000205043203D202025E5
:102CB0003038580A0000000020505352203D202593
:102CC0003038580A000000004653522F4641523A0D
:102CD0000A0000002043465352203D202025303872
:102CE000580A00002048465352203D202025303805
:102CF000580A00002044465352203D2020253038F9
:102D0000580A00002041465352203D2020253038EB
:102D1000580A0000204D4D464152203D20253038B4
:102D2000580A00002042464152203D2020253038DC
:102D3000580A00004D6973630A000000204C522FAE
:102D40004558435F52455455524E3D202530385822
:102D50000A0000005B486172644661756C745D0A2C
:102D6000000000005B4275734661756C745D0A007B
:102D70005B55736167654661756C745D0A000000A0
:102D8000000000000000000001020304060708091B
:102D90004D656E736167656D207265636562696418
:102DA00061206461207461726566612025640A0097
:102DB000002020202020202020202828282828200B
:102DC0002020202020202020202020202020202003
:102DD000208810101010101010101010101010106B
:102DE000100404040404040404040410101010105B
:102DF0001010414141414141010101010101010125
:102E00000101010101010101010101011010101076
:102E100010104242424242420202020202020202F6
:102E2000020202020202020202020202101010104A
:102E30002000000000000000000000000000000072
:102E40000000000000000000000000000000000082
:102E50000000000000000000000000000000000072
:102E60000000000000000000000000000000000062
:102E70000000000000000000000000000000000052
:102E80000000000000000000000000000000000042
:102E90000000000000000000000000000000000032
:102EA0000000000000000000000000000000000022
:102EB0000000000000000000000000000000000012
:102EC0000000000000000000000000000000000002
:102ED00000000000000000000000000000000000F2
:102EE00000000000000000000000000000000000E2
:102EF00000000000000000000000000000000000D2
:102F000000000000000000000000000000000000C1
:102F10000000000018000020232D302B2000686CDA
:102F20004C006566674546470030313233343536EC
:102F30003738394142434445460030313233343525
:0B2F4000363738396162636465660053
:102F4C00785634120024F400F115000841160008DC
:102F5C00191600081800002000000000D42E0008EC
:102F6C00F42E0008B42E0008000000000000000041
:102F7C000000000000000000000000000000000045
:102F8C000000000000000000000000000000000035
:102F9C000000000000000000000000000000000025
:102FAC000000000000000000000000000000000015
:0C2FBC0000000000000000003254769875
:040000050800018965
:00000001FF
